{
  "_format": "hh-sol-artifact-1",
  "contractName": "Cranes",
  "sourceName": "contracts/Cranes.sol",
  "abi": [
    {
      "inputs": [],
      "stateMutability": "nonpayable",
      "type": "constructor"
    },
    {
      "anonymous": false,
      "inputs": [
        {
          "indexed": true,
          "internalType": "address",
          "name": "owner",
          "type": "address"
        },
        {
          "indexed": true,
          "internalType": "address",
          "name": "approved",
          "type": "address"
        },
        {
          "indexed": true,
          "internalType": "uint256",
          "name": "tokenId",
          "type": "uint256"
        }
      ],
      "name": "Approval",
      "type": "event"
    },
    {
      "anonymous": false,
      "inputs": [
        {
          "indexed": true,
          "internalType": "address",
          "name": "owner",
          "type": "address"
        },
        {
          "indexed": true,
          "internalType": "address",
          "name": "operator",
          "type": "address"
        },
        {
          "indexed": false,
          "internalType": "bool",
          "name": "approved",
          "type": "bool"
        }
      ],
      "name": "ApprovalForAll",
      "type": "event"
    },
    {
      "anonymous": false,
      "inputs": [
        {
          "indexed": true,
          "internalType": "address",
          "name": "previousOwner",
          "type": "address"
        },
        {
          "indexed": true,
          "internalType": "address",
          "name": "newOwner",
          "type": "address"
        }
      ],
      "name": "OwnershipTransferred",
      "type": "event"
    },
    {
      "anonymous": false,
      "inputs": [
        {
          "indexed": true,
          "internalType": "address",
          "name": "from",
          "type": "address"
        },
        {
          "indexed": true,
          "internalType": "address",
          "name": "to",
          "type": "address"
        },
        {
          "indexed": true,
          "internalType": "uint256",
          "name": "tokenId",
          "type": "uint256"
        }
      ],
      "name": "Transfer",
      "type": "event"
    },
    {
      "inputs": [],
      "name": "MAX_CRANES",
      "outputs": [
        {
          "internalType": "uint256",
          "name": "",
          "type": "uint256"
        }
      ],
      "stateMutability": "view",
      "type": "function"
    },
    {
      "inputs": [
        {
          "internalType": "address",
          "name": "to",
          "type": "address"
        },
        {
          "internalType": "uint256",
          "name": "tokenId",
          "type": "uint256"
        }
      ],
      "name": "approve",
      "outputs": [],
      "stateMutability": "nonpayable",
      "type": "function"
    },
    {
      "inputs": [
        {
          "internalType": "address",
          "name": "owner",
          "type": "address"
        }
      ],
      "name": "balanceOf",
      "outputs": [
        {
          "internalType": "uint256",
          "name": "",
          "type": "uint256"
        }
      ],
      "stateMutability": "view",
      "type": "function"
    },
    {
      "inputs": [],
      "name": "craft",
      "outputs": [],
      "stateMutability": "payable",
      "type": "function"
    },
    {
      "inputs": [
        {
          "internalType": "uint256",
          "name": "tokenId",
          "type": "uint256"
        }
      ],
      "name": "getApproved",
      "outputs": [
        {
          "internalType": "address",
          "name": "",
          "type": "address"
        }
      ],
      "stateMutability": "view",
      "type": "function"
    },
    {
      "inputs": [
        {
          "internalType": "address",
          "name": "owner",
          "type": "address"
        },
        {
          "internalType": "address",
          "name": "operator",
          "type": "address"
        }
      ],
      "name": "isApprovedForAll",
      "outputs": [
        {
          "internalType": "bool",
          "name": "",
          "type": "bool"
        }
      ],
      "stateMutability": "view",
      "type": "function"
    },
    {
      "inputs": [],
      "name": "mint",
      "outputs": [],
      "stateMutability": "nonpayable",
      "type": "function"
    },
    {
      "inputs": [],
      "name": "name",
      "outputs": [
        {
          "internalType": "string",
          "name": "",
          "type": "string"
        }
      ],
      "stateMutability": "view",
      "type": "function"
    },
    {
      "inputs": [],
      "name": "owner",
      "outputs": [
        {
          "internalType": "address",
          "name": "",
          "type": "address"
        }
      ],
      "stateMutability": "view",
      "type": "function"
    },
    {
      "inputs": [
        {
          "internalType": "uint256",
          "name": "tokenId",
          "type": "uint256"
        }
      ],
      "name": "ownerOf",
      "outputs": [
        {
          "internalType": "address",
          "name": "",
          "type": "address"
        }
      ],
      "stateMutability": "view",
      "type": "function"
    },
    {
      "inputs": [],
      "name": "renounceOwnership",
      "outputs": [],
      "stateMutability": "nonpayable",
      "type": "function"
    },
    {
      "inputs": [
        {
          "internalType": "address",
          "name": "from",
          "type": "address"
        },
        {
          "internalType": "address",
          "name": "to",
          "type": "address"
        },
        {
          "internalType": "uint256",
          "name": "tokenId",
          "type": "uint256"
        }
      ],
      "name": "safeTransferFrom",
      "outputs": [],
      "stateMutability": "nonpayable",
      "type": "function"
    },
    {
      "inputs": [
        {
          "internalType": "address",
          "name": "from",
          "type": "address"
        },
        {
          "internalType": "address",
          "name": "to",
          "type": "address"
        },
        {
          "internalType": "uint256",
          "name": "tokenId",
          "type": "uint256"
        },
        {
          "internalType": "bytes",
          "name": "_data",
          "type": "bytes"
        }
      ],
      "name": "safeTransferFrom",
      "outputs": [],
      "stateMutability": "nonpayable",
      "type": "function"
    },
    {
      "inputs": [
        {
          "internalType": "address",
          "name": "operator",
          "type": "address"
        },
        {
          "internalType": "bool",
          "name": "approved",
          "type": "bool"
        }
      ],
      "name": "setApprovalForAll",
      "outputs": [],
      "stateMutability": "nonpayable",
      "type": "function"
    },
    {
      "inputs": [
        {
          "internalType": "bytes4",
          "name": "interfaceId",
          "type": "bytes4"
        }
      ],
      "name": "supportsInterface",
      "outputs": [
        {
          "internalType": "bool",
          "name": "",
          "type": "bool"
        }
      ],
      "stateMutability": "view",
      "type": "function"
    },
    {
      "inputs": [],
      "name": "symbol",
      "outputs": [
        {
          "internalType": "string",
          "name": "",
          "type": "string"
        }
      ],
      "stateMutability": "view",
      "type": "function"
    },
    {
      "inputs": [
        {
          "internalType": "uint256",
          "name": "index",
          "type": "uint256"
        }
      ],
      "name": "tokenByIndex",
      "outputs": [
        {
          "internalType": "uint256",
          "name": "",
          "type": "uint256"
        }
      ],
      "stateMutability": "view",
      "type": "function"
    },
    {
      "inputs": [
        {
          "internalType": "address",
          "name": "owner",
          "type": "address"
        },
        {
          "internalType": "uint256",
          "name": "index",
          "type": "uint256"
        }
      ],
      "name": "tokenOfOwnerByIndex",
      "outputs": [
        {
          "internalType": "uint256",
          "name": "",
          "type": "uint256"
        }
      ],
      "stateMutability": "view",
      "type": "function"
    },
    {
      "inputs": [
        {
          "internalType": "uint256",
          "name": "tokenId",
          "type": "uint256"
        }
      ],
      "name": "tokenURI",
      "outputs": [
        {
          "internalType": "string",
          "name": "",
          "type": "string"
        }
      ],
      "stateMutability": "view",
      "type": "function"
    },
    {
      "inputs": [],
      "name": "totalSupply",
      "outputs": [
        {
          "internalType": "uint256",
          "name": "",
          "type": "uint256"
        }
      ],
      "stateMutability": "view",
      "type": "function"
    },
    {
      "inputs": [],
      "name": "totalYearlySupply",
      "outputs": [
        {
          "internalType": "uint256",
          "name": "",
          "type": "uint256"
        }
      ],
      "stateMutability": "view",
      "type": "function"
    },
    {
      "inputs": [
        {
          "internalType": "address",
          "name": "from",
          "type": "address"
        },
        {
          "internalType": "address",
          "name": "to",
          "type": "address"
        },
        {
          "internalType": "uint256",
          "name": "tokenId",
          "type": "uint256"
        }
      ],
      "name": "transferFrom",
      "outputs": [],
      "stateMutability": "nonpayable",
      "type": "function"
    },
    {
      "inputs": [
        {
          "internalType": "address",
          "name": "newOwner",
          "type": "address"
        }
      ],
      "name": "transferOwnership",
      "outputs": [],
      "stateMutability": "nonpayable",
      "type": "function"
    }
  ],
  "bytecode": "0x60806040523480156200001157600080fd5b506040518060400160405280600681526020017f4372616e657300000000000000000000000000000000000000000000000000008152506040518060400160405280600481526020017f43524e5300000000000000000000000000000000000000000000000000000000815250816000908051906020019062000096929190620001a6565b508060019080519060200190620000af929190620001a6565b505050620000d2620000c6620000d860201b60201c565b620000e060201b60201c565b620002bb565b600033905090565b6000600a60009054906101000a900473ffffffffffffffffffffffffffffffffffffffff16905081600a60006101000a81548173ffffffffffffffffffffffffffffffffffffffff021916908373ffffffffffffffffffffffffffffffffffffffff1602179055508173ffffffffffffffffffffffffffffffffffffffff168173ffffffffffffffffffffffffffffffffffffffff167f8be0079c531659141344cd1fd0a4f28419497f9722a3daafe3b4186f6b6457e060405160405180910390a35050565b828054620001b49062000256565b90600052602060002090601f016020900481019282620001d8576000855562000224565b82601f10620001f357805160ff191683800117855562000224565b8280016001018555821562000224579182015b828111156200022357825182559160200191906001019062000206565b5b50905062000233919062000237565b5090565b5b808211156200025257600081600090555060010162000238565b5090565b600060028204905060018216806200026f57607f821691505b602082108114156200028657620002856200028c565b5b50919050565b7f4e487b7100000000000000000000000000000000000000000000000000000000600052602260045260246000fd5b615f8480620002cb6000396000f3fe6080604052600436106101405760003560e01c806364981bd1116100b657806395d89b411161006f57806395d89b411461043d578063a22cb46514610468578063b88d4fde14610491578063c87b56dd146104ba578063e985e9c5146104f7578063f2fde38b1461053457610140565b806364981bd11461035e5780636fc3d6c81461038957806370a08231146103b4578063715018a6146103f1578063814e4ad9146104085780638da5cb5b1461041257610140565b806318160ddd1161010857806318160ddd1461022a57806323b872dd146102555780632f745c591461027e57806342842e0e146102bb5780634f6ccce7146102e45780636352211e1461032157610140565b806301ffc9a71461014557806306fdde0314610182578063081812fc146101ad578063095ea7b3146101ea5780631249c58b14610213575b600080fd5b34801561015157600080fd5b5061016c600480360381019061016791906141e1565b61055d565b6040516101799190614880565b60405180910390f35b34801561018e57600080fd5b5061019761056f565b6040516101a4919061489b565b60405180910390f35b3480156101b957600080fd5b506101d460048036038101906101cf9190614233565b610601565b6040516101e19190614819565b60405180910390f35b3480156101f657600080fd5b50610211600480360381019061020c91906141a5565b610686565b005b34801561021f57600080fd5b5061022861079e565b005b34801561023657600080fd5b5061023f610890565b60405161024c9190614add565b60405180910390f35b34801561026157600080fd5b5061027c6004803603810190610277919061409f565b61089d565b005b34801561028a57600080fd5b506102a560048036038101906102a091906141a5565b6108fd565b6040516102b29190614add565b60405180910390f35b3480156102c757600080fd5b506102e260048036038101906102dd919061409f565b6109a2565b005b3480156102f057600080fd5b5061030b60048036038101906103069190614233565b6109c2565b6040516103189190614add565b60405180910390f35b34801561032d57600080fd5b5061034860048036038101906103439190614233565b610a59565b6040516103559190614819565b60405180910390f35b34801561036a57600080fd5b50610373610b0b565b6040516103809190614add565b60405180910390f35b34801561039557600080fd5b5061039e610b34565b6040516103ab9190614add565b60405180910390f35b3480156103c057600080fd5b506103db60048036038101906103d6919061403a565b610b3a565b6040516103e89190614add565b60405180910390f35b3480156103fd57600080fd5b50610406610bf2565b005b610410610c7a565b005b34801561041e57600080fd5b50610427610c7c565b6040516104349190614819565b60405180910390f35b34801561044957600080fd5b50610452610ca6565b60405161045f919061489b565b60405180910390f35b34801561047457600080fd5b5061048f600480360381019061048a9190614169565b610d38565b005b34801561049d57600080fd5b506104b860048036038101906104b391906140ee565b610eb9565b005b3480156104c657600080fd5b506104e160048036038101906104dc9190614233565b610f1b565b6040516104ee919061489b565b60405180910390f35b34801561050357600080fd5b5061051e60048036038101906105199190614063565b61293e565b60405161052b9190614880565b60405180910390f35b34801561054057600080fd5b5061055b6004803603810190610556919061403a565b6129d2565b005b600061056882612aca565b9050919050565b60606000805461057e90614d5c565b80601f01602080910402602001604051908101604052809291908181526020018280546105aa90614d5c565b80156105f75780601f106105cc576101008083540402835291602001916105f7565b820191906000526020600020905b8154815290600101906020018083116105da57829003601f168201915b5050505050905090565b600061060c82612b44565b61064b576040517f08c379a000000000000000000000000000000000000000000000000000000000815260040161064290614a1d565b60405180910390fd5b6004600083815260200190815260200160002060009054906101000a900473ffffffffffffffffffffffffffffffffffffffff169050919050565b600061069182610a59565b90508073ffffffffffffffffffffffffffffffffffffffff168373ffffffffffffffffffffffffffffffffffffffff161415610702576040517f08c379a00000000000000000000000000000000000000000000000000000000081526004016106f990614a7d565b60405180910390fd5b8073ffffffffffffffffffffffffffffffffffffffff16610721612bb0565b73ffffffffffffffffffffffffffffffffffffffff161480610750575061074f8161074a612bb0565b61293e565b5b61078f576040517f08c379a00000000000000000000000000000000000000000000000000000000081526004016107869061499d565b60405180910390fd5b6107998383612bb8565b505050565b6107a6612bb0565b73ffffffffffffffffffffffffffffffffffffffff166107c4610c7c565b73ffffffffffffffffffffffffffffffffffffffff161461081a576040517f08c379a000000000000000000000000000000000000000000000000000000000815260040161081190614a3d565b60405180910390fd5b6000610826600b612c71565b9050610839610833612bb0565b82612c7f565b61084a61084542612c9d565b612e4a565b600d60008381526020019081526020016000208190555061086b600b612e7d565b61088d600c600061087a612e93565b8152602001908152602001600020612e7d565b50565b6000600880549050905090565b6108ae6108a8612bb0565b82612eb7565b6108ed576040517f08c379a00000000000000000000000000000000000000000000000000000000081526004016108e490614a9d565b60405180910390fd5b6108f8838383612f95565b505050565b600061090883610b3a565b8210610949576040517f08c379a0000000000000000000000000000000000000000000000000000000008152600401610940906148bd565b60405180910390fd5b600660008473ffffffffffffffffffffffffffffffffffffffff1673ffffffffffffffffffffffffffffffffffffffff168152602001908152602001600020600083815260200190815260200160002054905092915050565b6109bd83838360405180602001604052806000815250610eb9565b505050565b60006109cc610890565b8210610a0d576040517f08c379a0000000000000000000000000000000000000000000000000000000008152600401610a0490614abd565b60405180910390fd5b60088281548110610a47577f4e487b7100000000000000000000000000000000000000000000000000000000600052603260045260246000fd5b90600052602060002001549050919050565b6000806002600084815260200190815260200160002060009054906101000a900473ffffffffffffffffffffffffffffffffffffffff169050600073ffffffffffffffffffffffffffffffffffffffff168173ffffffffffffffffffffffffffffffffffffffff161415610b02576040517f08c379a0000000000000000000000000000000000000000000000000000000008152600401610af9906149dd565b60405180910390fd5b80915050919050565b6000610b2f600c6000610b1c612e93565b8152602001908152602001600020612c71565b905090565b613f3481565b60008073ffffffffffffffffffffffffffffffffffffffff168273ffffffffffffffffffffffffffffffffffffffff161415610bab576040517f08c379a0000000000000000000000000000000000000000000000000000000008152600401610ba2906149bd565b60405180910390fd5b600360008373ffffffffffffffffffffffffffffffffffffffff1673ffffffffffffffffffffffffffffffffffffffff168152602001908152602001600020549050919050565b610bfa612bb0565b73ffffffffffffffffffffffffffffffffffffffff16610c18610c7c565b73ffffffffffffffffffffffffffffffffffffffff1614610c6e576040517f08c379a0000000000000000000000000000000000000000000000000000000008152600401610c6590614a3d565b60405180910390fd5b610c7860006131f1565b565b565b6000600a60009054906101000a900473ffffffffffffffffffffffffffffffffffffffff16905090565b606060018054610cb590614d5c565b80601f0160208091040260200160405190810160405280929190818152602001828054610ce190614d5c565b8015610d2e5780601f10610d0357610100808354040283529160200191610d2e565b820191906000526020600020905b815481529060010190602001808311610d1157829003601f168201915b5050505050905090565b610d40612bb0565b73ffffffffffffffffffffffffffffffffffffffff168273ffffffffffffffffffffffffffffffffffffffff161415610dae576040517f08c379a0000000000000000000000000000000000000000000000000000000008152600401610da59061495d565b60405180910390fd5b8060056000610dbb612bb0565b73ffffffffffffffffffffffffffffffffffffffff1673ffffffffffffffffffffffffffffffffffffffff16815260200190815260200160002060008473ffffffffffffffffffffffffffffffffffffffff1673ffffffffffffffffffffffffffffffffffffffff16815260200190815260200160002060006101000a81548160ff0219169083151502179055508173ffffffffffffffffffffffffffffffffffffffff16610e68612bb0565b73ffffffffffffffffffffffffffffffffffffffff167f17307eab39ab6107e8899845ad3d59bd9653f200f220920489ca2b5937696c3183604051610ead9190614880565b60405180910390a35050565b610eca610ec4612bb0565b83612eb7565b610f09576040517f08c379a0000000000000000000000000000000000000000000000000000000008152600401610f0090614a9d565b60405180910390fd5b610f15848484846132b7565b50505050565b6060600082600d600085815260200190815260200160002054610f3e9190614b91565b90506000610f81826040518060400160405280600681526020017f434f4c4f52300000000000000000000000000000000000000000000000000000815250613313565b90506000610fc4836040518060400160405280600681526020017f434f4c4f52310000000000000000000000000000000000000000000000000000815250613313565b90506000611007846040518060400160405280600a81526020017f4241434b47524f554e4400000000000000000000000000000000000000000000815250613313565b9050611011613f41565b60405180610140016040528061010f8152602001615dcc61010f9139816000602b8110611067577f4e487b7100000000000000000000000000000000000000000000000000000000600052603260045260246000fd5b602002018190525083816001602b81106110aa577f4e487b7100000000000000000000000000000000000000000000000000000000600052603260045260246000fd5b602002018190525060405180606001604052806021815260200161572360219139816002602b8110611105577f4e487b7100000000000000000000000000000000000000000000000000000000600052603260045260246000fd5b602002018190525082816003602b8110611148577f4e487b7100000000000000000000000000000000000000000000000000000000600052603260045260246000fd5b60200201819052506040518060a0016040528060758152602001615ce160759139816004602b81106111a3577f4e487b7100000000000000000000000000000000000000000000000000000000600052603260045260246000fd5b602002018190525083816005602b81106111e6577f4e487b7100000000000000000000000000000000000000000000000000000000600052603260045260246000fd5b602002018190525060405180606001604052806021815260200161572360219139816006602b8110611241577f4e487b7100000000000000000000000000000000000000000000000000000000600052603260045260246000fd5b602002018190525082816007602b8110611284577f4e487b7100000000000000000000000000000000000000000000000000000000600052603260045260246000fd5b60200201819052506040518060a001604052806075815260200161561260759139816008602b81106112df577f4e487b7100000000000000000000000000000000000000000000000000000000600052603260045260246000fd5b602002018190525083816009602b8110611322577f4e487b7100000000000000000000000000000000000000000000000000000000600052603260045260246000fd5b60200201819052506040518060600160405280602181526020016157236021913981600a602b811061137d577f4e487b7100000000000000000000000000000000000000000000000000000000600052603260045260246000fd5b60200201819052508281600b602b81106113c0577f4e487b7100000000000000000000000000000000000000000000000000000000600052603260045260246000fd5b60200201819052506040518060a0016040528060768152602001615c6b6076913981600c602b811061141b577f4e487b7100000000000000000000000000000000000000000000000000000000600052603260045260246000fd5b60200201819052508381600d602b811061145e577f4e487b7100000000000000000000000000000000000000000000000000000000600052603260045260246000fd5b60200201819052506040518060600160405280602181526020016157236021913981600e602b81106114b9577f4e487b7100000000000000000000000000000000000000000000000000000000600052603260045260246000fd5b60200201819052508281600f602b81106114fc577f4e487b7100000000000000000000000000000000000000000000000000000000600052603260045260246000fd5b60200201819052506040518060a001604052806077815260200161559b60779139816010602b8110611557577f4e487b7100000000000000000000000000000000000000000000000000000000600052603260045260246000fd5b602002018190525083816011602b811061159a577f4e487b7100000000000000000000000000000000000000000000000000000000600052603260045260246000fd5b602002018190525060405180606001604052806021815260200161572360219139816012602b81106115f5577f4e487b7100000000000000000000000000000000000000000000000000000000600052603260045260246000fd5b602002018190525082816013602b8110611638577f4e487b7100000000000000000000000000000000000000000000000000000000600052603260045260246000fd5b60200201819052506040518060a0016040528060788152602001615b9b60789139816014602b8110611693577f4e487b7100000000000000000000000000000000000000000000000000000000600052603260045260246000fd5b602002018190525083816015602b81106116d6577f4e487b7100000000000000000000000000000000000000000000000000000000600052603260045260246000fd5b602002018190525060405180606001604052806021815260200161572360219139816016602b8110611731577f4e487b7100000000000000000000000000000000000000000000000000000000600052603260045260246000fd5b602002018190525082816017602b8110611774577f4e487b7100000000000000000000000000000000000000000000000000000000600052603260045260246000fd5b60200201819052506040518060a00160405280607881526020016156ab60789139816018602b81106117cf577f4e487b7100000000000000000000000000000000000000000000000000000000600052603260045260246000fd5b602002018190525083816019602b8110611812577f4e487b7100000000000000000000000000000000000000000000000000000000600052603260045260246000fd5b60200201819052506040518060600160405280602181526020016157236021913981601a602b811061186d577f4e487b7100000000000000000000000000000000000000000000000000000000600052603260045260246000fd5b60200201819052508281601b602b81106118b0577f4e487b7100000000000000000000000000000000000000000000000000000000600052603260045260246000fd5b60200201819052506040518060a0016040528060768152602001615d566076913981601c602b811061190b577f4e487b7100000000000000000000000000000000000000000000000000000000600052603260045260246000fd5b60200201819052508381601d602b811061194e577f4e487b7100000000000000000000000000000000000000000000000000000000600052603260045260246000fd5b60200201819052506040518060600160405280602181526020016157236021913981601e602b81106119a9577f4e487b7100000000000000000000000000000000000000000000000000000000600052603260045260246000fd5b60200201819052508281601f602b81106119ec577f4e487b7100000000000000000000000000000000000000000000000000000000600052603260045260246000fd5b60200201819052506040518060a0016040528060748152602001615edb60749139816020602b8110611a47577f4e487b7100000000000000000000000000000000000000000000000000000000600052603260045260246000fd5b602002018190525083816021602b8110611a8a577f4e487b7100000000000000000000000000000000000000000000000000000000600052603260045260246000fd5b602002018190525060405180606001604052806021815260200161572360219139816022602b8110611ae5577f4e487b7100000000000000000000000000000000000000000000000000000000600052603260045260246000fd5b602002018190525082816023602b8110611b28577f4e487b7100000000000000000000000000000000000000000000000000000000600052603260045260246000fd5b6020020181905250604051806080016040528060588152602001615c1360589139816024602b8110611b83577f4e487b7100000000000000000000000000000000000000000000000000000000600052603260045260246000fd5b602002018190525081816025602b8110611bc6577f4e487b7100000000000000000000000000000000000000000000000000000000600052603260045260246000fd5b60200201819052506040518061042001604052806103f381526020016157446103f39139816026602b8110611c24577f4e487b7100000000000000000000000000000000000000000000000000000000600052603260045260246000fd5b602002018190525082816027602b8110611c67577f4e487b7100000000000000000000000000000000000000000000000000000000600052603260045260246000fd5b6020020181905250604051806060016040528060248152602001615b7760249139816028602b8110611cc2577f4e487b7100000000000000000000000000000000000000000000000000000000600052603260045260246000fd5b602002018190525083816029602b8110611d05577f4e487b7100000000000000000000000000000000000000000000000000000000600052603260045260246000fd5b60200201819052506040518060600160405280602481526020016156876024913981602a602b8110611d60577f4e487b7100000000000000000000000000000000000000000000000000000000600052603260045260246000fd5b60200201819052506000816000602b8110611da4577f4e487b7100000000000000000000000000000000000000000000000000000000600052603260045260246000fd5b6020020151826001602b8110611de3577f4e487b7100000000000000000000000000000000000000000000000000000000600052603260045260246000fd5b6020020151836002602b8110611e22577f4e487b7100000000000000000000000000000000000000000000000000000000600052603260045260246000fd5b6020020151846003602b8110611e61577f4e487b7100000000000000000000000000000000000000000000000000000000600052603260045260246000fd5b6020020151856004602b8110611ea0577f4e487b7100000000000000000000000000000000000000000000000000000000600052603260045260246000fd5b6020020151866005602b8110611edf577f4e487b7100000000000000000000000000000000000000000000000000000000600052603260045260246000fd5b6020020151876006602b8110611f1e577f4e487b7100000000000000000000000000000000000000000000000000000000600052603260045260246000fd5b6020020151886007602b8110611f5d577f4e487b7100000000000000000000000000000000000000000000000000000000600052603260045260246000fd5b6020020151896008602b8110611f9c577f4e487b7100000000000000000000000000000000000000000000000000000000600052603260045260246000fd5b60200201518a6009602b8110611fdb577f4e487b7100000000000000000000000000000000000000000000000000000000600052603260045260246000fd5b60200201518b600a602b811061201a577f4e487b7100000000000000000000000000000000000000000000000000000000600052603260045260246000fd5b60200201516040516020016120399b9a999897969594939291906146bc565b60405160208183030381529060405290508082600b602b8110612085577f4e487b7100000000000000000000000000000000000000000000000000000000600052603260045260246000fd5b602002015183600c602b81106120c4577f4e487b7100000000000000000000000000000000000000000000000000000000600052603260045260246000fd5b602002015184600d602b8110612103577f4e487b7100000000000000000000000000000000000000000000000000000000600052603260045260246000fd5b602002015185600e602b8110612142577f4e487b7100000000000000000000000000000000000000000000000000000000600052603260045260246000fd5b602002015186600f602b8110612181577f4e487b7100000000000000000000000000000000000000000000000000000000600052603260045260246000fd5b6020020151876010602b81106121c0577f4e487b7100000000000000000000000000000000000000000000000000000000600052603260045260246000fd5b6020020151886011602b81106121ff577f4e487b7100000000000000000000000000000000000000000000000000000000600052603260045260246000fd5b6020020151896012602b811061223e577f4e487b7100000000000000000000000000000000000000000000000000000000600052603260045260246000fd5b60200201518a6013602b811061227d577f4e487b7100000000000000000000000000000000000000000000000000000000600052603260045260246000fd5b60200201518b6014602b81106122bc577f4e487b7100000000000000000000000000000000000000000000000000000000600052603260045260246000fd5b60200201516040516020016122db9b9a999897969594939291906146bc565b604051602081830303815290604052905080826015602b8110612327577f4e487b7100000000000000000000000000000000000000000000000000000000600052603260045260246000fd5b6020020151836016602b8110612366577f4e487b7100000000000000000000000000000000000000000000000000000000600052603260045260246000fd5b6020020151846017602b81106123a5577f4e487b7100000000000000000000000000000000000000000000000000000000600052603260045260246000fd5b6020020151856018602b81106123e4577f4e487b7100000000000000000000000000000000000000000000000000000000600052603260045260246000fd5b6020020151866019602b8110612423577f4e487b7100000000000000000000000000000000000000000000000000000000600052603260045260246000fd5b602002015187601a602b8110612462577f4e487b7100000000000000000000000000000000000000000000000000000000600052603260045260246000fd5b602002015188601b602b81106124a1577f4e487b7100000000000000000000000000000000000000000000000000000000600052603260045260246000fd5b602002015189601c602b81106124e0577f4e487b7100000000000000000000000000000000000000000000000000000000600052603260045260246000fd5b60200201518a601d602b811061251f577f4e487b7100000000000000000000000000000000000000000000000000000000600052603260045260246000fd5b60200201518b601e602b811061255e577f4e487b7100000000000000000000000000000000000000000000000000000000600052603260045260246000fd5b602002015160405160200161257d9b9a999897969594939291906146bc565b60405160208183030381529060405290508082601f602b81106125c9577f4e487b7100000000000000000000000000000000000000000000000000000000600052603260045260246000fd5b6020020151836020602b8110612608577f4e487b7100000000000000000000000000000000000000000000000000000000600052603260045260246000fd5b6020020151846021602b8110612647577f4e487b7100000000000000000000000000000000000000000000000000000000600052603260045260246000fd5b6020020151856022602b8110612686577f4e487b7100000000000000000000000000000000000000000000000000000000600052603260045260246000fd5b6020020151866023602b81106126c5577f4e487b7100000000000000000000000000000000000000000000000000000000600052603260045260246000fd5b6020020151876024602b8110612704577f4e487b7100000000000000000000000000000000000000000000000000000000600052603260045260246000fd5b6020020151886025602b8110612743577f4e487b7100000000000000000000000000000000000000000000000000000000600052603260045260246000fd5b6020020151896026602b8110612782577f4e487b7100000000000000000000000000000000000000000000000000000000600052603260045260246000fd5b60200201518a6027602b81106127c1577f4e487b7100000000000000000000000000000000000000000000000000000000600052603260045260246000fd5b60200201518b6028602b8110612800577f4e487b7100000000000000000000000000000000000000000000000000000000600052603260045260246000fd5b602002015160405160200161281f9b9a999897969594939291906146bc565b604051602081830303815290604052905080826029602b811061286b577f4e487b7100000000000000000000000000000000000000000000000000000000600052603260045260246000fd5b602002015183602a602b81106128aa577f4e487b7100000000000000000000000000000000000000000000000000000000600052603260045260246000fd5b60200201516040516020016128c19392919061468b565b604051602081830303815290604052905061290c6128de89612c9d565b6128e783613362565b6040516020016128f89291906147d4565b604051602081830303815290604052613362565b90508060405160200161291f91906147b2565b6040516020818303038152906040529050809650505050505050919050565b6000600560008473ffffffffffffffffffffffffffffffffffffffff1673ffffffffffffffffffffffffffffffffffffffff16815260200190815260200160002060008373ffffffffffffffffffffffffffffffffffffffff1673ffffffffffffffffffffffffffffffffffffffff16815260200190815260200160002060009054906101000a900460ff16905092915050565b6129da612bb0565b73ffffffffffffffffffffffffffffffffffffffff166129f8610c7c565b73ffffffffffffffffffffffffffffffffffffffff1614612a4e576040517f08c379a0000000000000000000000000000000000000000000000000000000008152600401612a4590614a3d565b60405180910390fd5b600073ffffffffffffffffffffffffffffffffffffffff168173ffffffffffffffffffffffffffffffffffffffff161415612abe576040517f08c379a0000000000000000000000000000000000000000000000000000000008152600401612ab5906148fd565b60405180910390fd5b612ac7816131f1565b50565b60007f780e9d63000000000000000000000000000000000000000000000000000000007bffffffffffffffffffffffffffffffffffffffffffffffffffffffff1916827bffffffffffffffffffffffffffffffffffffffffffffffffffffffff19161480612b3d5750612b3c82613520565b5b9050919050565b60008073ffffffffffffffffffffffffffffffffffffffff166002600084815260200190815260200160002060009054906101000a900473ffffffffffffffffffffffffffffffffffffffff1673ffffffffffffffffffffffffffffffffffffffff1614159050919050565b600033905090565b816004600083815260200190815260200160002060006101000a81548173ffffffffffffffffffffffffffffffffffffffff021916908373ffffffffffffffffffffffffffffffffffffffff160217905550808273ffffffffffffffffffffffffffffffffffffffff16612c2b83610a59565b73ffffffffffffffffffffffffffffffffffffffff167f8c5be1e5ebec7d5bd14f71427d1e84f3dd0314c0f7b2291e5b200ac8c7c3b92560405160405180910390a45050565b600081600001549050919050565b612c99828260405180602001604052806000815250613602565b5050565b60606000821415612ce5576040518060400160405280600181526020017f30000000000000000000000000000000000000000000000000000000000000008152509050612e45565b600082905060005b60008214612d17578080612d0090614dbf565b915050600a82612d109190614be7565b9150612ced565b60008167ffffffffffffffff811115612d59577f4e487b7100000000000000000000000000000000000000000000000000000000600052604160045260246000fd5b6040519080825280601f01601f191660200182016040528015612d8b5781602001600182028036833780820191505090505b5090505b60008514612e3e57600182612da49190614c72565b9150600a85612db39190614e08565b6030612dbf9190614b91565b60f81b818381518110612dfb577f4e487b7100000000000000000000000000000000000000000000000000000000600052603260045260246000fd5b60200101907effffffffffffffffffffffffffffffffffffffffffffffffffffffffffffff1916908160001a905350600a85612e379190614be7565b9450612d8f565b8093505050505b919050565b600081604051602001612e5d9190614674565b6040516020818303038152906040528051906020012060001c9050919050565b6001816000016000828254019250508190555050565b60006301e1853e42612ea59190614be7565b6107b2612eb29190614b91565b905090565b6000612ec282612b44565b612f01576040517f08c379a0000000000000000000000000000000000000000000000000000000008152600401612ef89061497d565b60405180910390fd5b6000612f0c83610a59565b90508073ffffffffffffffffffffffffffffffffffffffff168473ffffffffffffffffffffffffffffffffffffffff161480612f7b57508373ffffffffffffffffffffffffffffffffffffffff16612f6384610601565b73ffffffffffffffffffffffffffffffffffffffff16145b80612f8c5750612f8b818561293e565b5b91505092915050565b8273ffffffffffffffffffffffffffffffffffffffff16612fb582610a59565b73ffffffffffffffffffffffffffffffffffffffff161461300b576040517f08c379a000000000000000000000000000000000000000000000000000000000815260040161300290614a5d565b60405180910390fd5b600073ffffffffffffffffffffffffffffffffffffffff168273ffffffffffffffffffffffffffffffffffffffff16141561307b576040517f08c379a00000000000000000000000000000000000000000000000000000000081526004016130729061493d565b60405180910390fd5b61308683838361365d565b613091600082612bb8565b6001600360008573ffffffffffffffffffffffffffffffffffffffff1673ffffffffffffffffffffffffffffffffffffffff16815260200190815260200160002060008282546130e19190614c72565b925050819055506001600360008473ffffffffffffffffffffffffffffffffffffffff1673ffffffffffffffffffffffffffffffffffffffff16815260200190815260200160002060008282546131389190614b91565b92505081905550816002600083815260200190815260200160002060006101000a81548173ffffffffffffffffffffffffffffffffffffffff021916908373ffffffffffffffffffffffffffffffffffffffff160217905550808273ffffffffffffffffffffffffffffffffffffffff168473ffffffffffffffffffffffffffffffffffffffff167fddf252ad1be2c89b69c2b068fc378daa952ba7f163c4a11628f55a4df523b3ef60405160405180910390a4505050565b6000600a60009054906101000a900473ffffffffffffffffffffffffffffffffffffffff16905081600a60006101000a81548173ffffffffffffffffffffffffffffffffffffffff021916908373ffffffffffffffffffffffffffffffffffffffff1602179055508173ffffffffffffffffffffffffffffffffffffffff168173ffffffffffffffffffffffffffffffffffffffff167f8be0079c531659141344cd1fd0a4f28419497f9722a3daafe3b4186f6b6457e060405160405180910390a35050565b6132c2848484612f95565b6132ce8484848461366d565b61330d576040517f08c379a0000000000000000000000000000000000000000000000000000000008152600401613304906148dd565b60405180910390fd5b50505050565b606061332183836000613804565b61332d84846001613804565b61333985856002613804565b60405160200161334b93929190614755565b604051602081830303815290604052905092915050565b6060600082519050600081141561338b576040518060200160405280600081525091505061351b565b6000600360028361339c9190614b91565b6133a69190614be7565b60046133b29190614c18565b905060006020826133c39190614b91565b67ffffffffffffffff811115613402577f4e487b7100000000000000000000000000000000000000000000000000000000600052604160045260246000fd5b6040519080825280601f01601f1916602001820160405280156134345781602001600182028036833780820191505090505b5090506000604051806060016040528060408152602001615b37604091399050600181016020830160005b868110156134d85760038101905062ffffff818a015116603f8160121c168401518060081b905060ff603f83600c1c1686015116810190508060081b905060ff603f8360061c1686015116810190508060081b905060ff603f831686015116810190508060e01b9050808452600484019350505061345f565b5060038606600181146134f257600281146135025761350d565b613d3d60f01b600283035261350d565b603d60f81b60018303525b508484525050819450505050505b919050565b60007f80ac58cd000000000000000000000000000000000000000000000000000000007bffffffffffffffffffffffffffffffffffffffffffffffffffffffff1916827bffffffffffffffffffffffffffffffffffffffffffffffffffffffff191614806135eb57507f5b5e139f000000000000000000000000000000000000000000000000000000007bffffffffffffffffffffffffffffffffffffffffffffffffffffffff1916827bffffffffffffffffffffffffffffffffffffffffffffffffffffffff1916145b806135fb57506135fa82613865565b5b9050919050565b61360c83836138cf565b613619600084848461366d565b613658576040517f08c379a000000000000000000000000000000000000000000000000000000000815260040161364f906148dd565b60405180910390fd5b505050565b613668838383613a9d565b505050565b600061368e8473ffffffffffffffffffffffffffffffffffffffff16613bb1565b156137f7578373ffffffffffffffffffffffffffffffffffffffff1663150b7a026136b7612bb0565b8786866040518563ffffffff1660e01b81526004016136d99493929190614834565b602060405180830381600087803b1580156136f357600080fd5b505af192505050801561372457506040513d601f19601f82011682018060405250810190613721919061420a565b60015b6137a7573d8060008114613754576040519150601f19603f3d011682016040523d82523d6000602084013e613759565b606091505b5060008151141561379f576040517f08c379a0000000000000000000000000000000000000000000000000000000008152600401613796906148dd565b60405180910390fd5b805181602001fd5b63150b7a0260e01b7bffffffffffffffffffffffffffffffffffffffffffffffffffffffff1916817bffffffffffffffffffffffffffffffffffffffffffffffffffffffff1916149150506137fc565b600190505b949350505050565b606060006138448461381585612c9d565b61381e88612c9d565b6040516020016138309392919061468b565b604051602081830303815290604052612e4a565b905061385b60ff826138569190614e08565b612c9d565b9150509392505050565b60007f01ffc9a7000000000000000000000000000000000000000000000000000000007bffffffffffffffffffffffffffffffffffffffffffffffffffffffff1916827bffffffffffffffffffffffffffffffffffffffffffffffffffffffff1916149050919050565b600073ffffffffffffffffffffffffffffffffffffffff168273ffffffffffffffffffffffffffffffffffffffff16141561393f576040517f08c379a0000000000000000000000000000000000000000000000000000000008152600401613936906149fd565b60405180910390fd5b61394881612b44565b15613988576040517f08c379a000000000000000000000000000000000000000000000000000000000815260040161397f9061491d565b60405180910390fd5b6139946000838361365d565b6001600360008473ffffffffffffffffffffffffffffffffffffffff1673ffffffffffffffffffffffffffffffffffffffff16815260200190815260200160002060008282546139e49190614b91565b92505081905550816002600083815260200190815260200160002060006101000a81548173ffffffffffffffffffffffffffffffffffffffff021916908373ffffffffffffffffffffffffffffffffffffffff160217905550808273ffffffffffffffffffffffffffffffffffffffff16600073ffffffffffffffffffffffffffffffffffffffff167fddf252ad1be2c89b69c2b068fc378daa952ba7f163c4a11628f55a4df523b3ef60405160405180910390a45050565b613aa8838383613bc4565b600073ffffffffffffffffffffffffffffffffffffffff168373ffffffffffffffffffffffffffffffffffffffff161415613aeb57613ae681613bc9565b613b2a565b8173ffffffffffffffffffffffffffffffffffffffff168373ffffffffffffffffffffffffffffffffffffffff1614613b2957613b288382613c12565b5b5b600073ffffffffffffffffffffffffffffffffffffffff168273ffffffffffffffffffffffffffffffffffffffff161415613b6d57613b6881613d7f565b613bac565b8273ffffffffffffffffffffffffffffffffffffffff168273ffffffffffffffffffffffffffffffffffffffff1614613bab57613baa8282613ec2565b5b5b505050565b600080823b905060008111915050919050565b505050565b6008805490506009600083815260200190815260200160002081905550600881908060018154018082558091505060019003906000526020600020016000909190919091505550565b60006001613c1f84610b3a565b613c299190614c72565b9050600060076000848152602001908152602001600020549050818114613d0e576000600660008673ffffffffffffffffffffffffffffffffffffffff1673ffffffffffffffffffffffffffffffffffffffff168152602001908152602001600020600084815260200190815260200160002054905080600660008773ffffffffffffffffffffffffffffffffffffffff1673ffffffffffffffffffffffffffffffffffffffff168152602001908152602001600020600084815260200190815260200160002081905550816007600083815260200190815260200160002081905550505b6007600084815260200190815260200160002060009055600660008573ffffffffffffffffffffffffffffffffffffffff1673ffffffffffffffffffffffffffffffffffffffff16815260200190815260200160002060008381526020019081526020016000206000905550505050565b60006001600880549050613d939190614c72565b9050600060096000848152602001908152602001600020549050600060088381548110613de9577f4e487b7100000000000000000000000000000000000000000000000000000000600052603260045260246000fd5b906000526020600020015490508060088381548110613e31577f4e487b7100000000000000000000000000000000000000000000000000000000600052603260045260246000fd5b906000526020600020018190555081600960008381526020019081526020016000208190555060096000858152602001908152602001600020600090556008805480613ea6577f4e487b7100000000000000000000000000000000000000000000000000000000600052603160045260246000fd5b6001900381819060005260206000200160009055905550505050565b6000613ecd83610b3a565b905081600660008573ffffffffffffffffffffffffffffffffffffffff1673ffffffffffffffffffffffffffffffffffffffff168152602001908152602001600020600083815260200190815260200160002081905550806007600084815260200190815260200160002081905550505050565b604051806105600160405280602b905b6060815260200190600190039081613f515790505090565b6000613f7c613f7784614b1d565b614af8565b905082815260208101848484011115613f9457600080fd5b613f9f848285614d1a565b509392505050565b600081359050613fb68161553e565b92915050565b600081359050613fcb81615555565b92915050565b600081359050613fe08161556c565b92915050565b600081519050613ff58161556c565b92915050565b600082601f83011261400c57600080fd5b813561401c848260208601613f69565b91505092915050565b60008135905061403481615583565b92915050565b60006020828403121561404c57600080fd5b600061405a84828501613fa7565b91505092915050565b6000806040838503121561407657600080fd5b600061408485828601613fa7565b925050602061409585828601613fa7565b9150509250929050565b6000806000606084860312156140b457600080fd5b60006140c286828701613fa7565b93505060206140d386828701613fa7565b92505060406140e486828701614025565b9150509250925092565b6000806000806080858703121561410457600080fd5b600061411287828801613fa7565b945050602061412387828801613fa7565b935050604061413487828801614025565b925050606085013567ffffffffffffffff81111561415157600080fd5b61415d87828801613ffb565b91505092959194509250565b6000806040838503121561417c57600080fd5b600061418a85828601613fa7565b925050602061419b85828601613fbc565b9150509250929050565b600080604083850312156141b857600080fd5b60006141c685828601613fa7565b92505060206141d785828601614025565b9150509250929050565b6000602082840312156141f357600080fd5b600061420184828501613fd1565b91505092915050565b60006020828403121561421c57600080fd5b600061422a84828501613fe6565b91505092915050565b60006020828403121561424557600080fd5b600061425384828501614025565b91505092915050565b61426581614ca6565b82525050565b61427481614cb8565b82525050565b600061428582614b4e565b61428f8185614b64565b935061429f818560208601614d29565b6142a881614ef5565b840191505092915050565b60006142be82614b59565b6142c88185614b75565b93506142d8818560208601614d29565b6142e181614ef5565b840191505092915050565b60006142f782614b59565b6143018185614b86565b9350614311818560208601614d29565b80840191505092915050565b600061432a602b83614b75565b915061433582614f06565b604082019050919050565b600061434d603283614b75565b915061435882614f55565b604082019050919050565b6000614370602683614b75565b915061437b82614fa4565b604082019050919050565b6000614393601c83614b75565b915061439e82614ff3565b602082019050919050565b60006143b6600183614b86565b91506143c18261501c565b600182019050919050565b60006143d9600483614b86565b91506143e482615045565b600482019050919050565b60006143fc602483614b75565b91506144078261506e565b604082019050919050565b600061441f601983614b75565b915061442a826150bd565b602082019050919050565b6000614442602c83614b75565b915061444d826150e6565b604082019050919050565b6000614465600183614b86565b915061447082615135565b600182019050919050565b6000614488603883614b75565b91506144938261515e565b604082019050919050565b60006144ab602a83614b75565b91506144b6826151ad565b604082019050919050565b60006144ce602983614b75565b91506144d9826151fc565b604082019050919050565b60006144f1600283614b86565b91506144fc8261524b565b600282019050919050565b6000614514602083614b75565b915061451f82615274565b602082019050919050565b6000614537602c83614b75565b91506145428261529d565b604082019050919050565b600061455a602083614b75565b9150614565826152ec565b602082019050919050565b600061457d602983614b75565b915061458882615315565b604082019050919050565b60006145a0602183614b75565b91506145ab82615364565b604082019050919050565b60006145c3601d83614b86565b91506145ce826153b3565b601d82019050919050565b60006145e6603183614b75565b91506145f1826153dc565b604082019050919050565b6000614609602c83614b75565b91506146148261542b565b604082019050919050565b600061462c607783614b86565b91506146378261547a565b607782019050919050565b600061464f601183614b86565b915061465a82615515565b601182019050919050565b61466e81614d10565b82525050565b600061468082846142ec565b915081905092915050565b600061469782866142ec565b91506146a382856142ec565b91506146af82846142ec565b9150819050949350505050565b60006146c8828e6142ec565b91506146d4828d6142ec565b91506146e0828c6142ec565b91506146ec828b6142ec565b91506146f8828a6142ec565b915061470482896142ec565b915061471082886142ec565b915061471c82876142ec565b915061472882866142ec565b915061473482856142ec565b915061474082846142ec565b91508190509c9b505050505050505050505050565b6000614760826143cc565b915061476c82866142ec565b9150614777826143a9565b915061478382856142ec565b915061478e826143a9565b915061479a82846142ec565b91506147a582614458565b9150819050949350505050565b60006147bd826145b6565b91506147c982846142ec565b915081905092915050565b60006147df82614642565b91506147eb82856142ec565b91506147f68261461f565b915061480282846142ec565b915061480d826144e4565b91508190509392505050565b600060208201905061482e600083018461425c565b92915050565b6000608082019050614849600083018761425c565b614856602083018661425c565b6148636040830185614665565b8181036060830152614875818461427a565b905095945050505050565b6000602082019050614895600083018461426b565b92915050565b600060208201905081810360008301526148b581846142b3565b905092915050565b600060208201905081810360008301526148d68161431d565b9050919050565b600060208201905081810360008301526148f681614340565b9050919050565b6000602082019050818103600083015261491681614363565b9050919050565b6000602082019050818103600083015261493681614386565b9050919050565b60006020820190508181036000830152614956816143ef565b9050919050565b6000602082019050818103600083015261497681614412565b9050919050565b6000602082019050818103600083015261499681614435565b9050919050565b600060208201905081810360008301526149b68161447b565b9050919050565b600060208201905081810360008301526149d68161449e565b9050919050565b600060208201905081810360008301526149f6816144c1565b9050919050565b60006020820190508181036000830152614a1681614507565b9050919050565b60006020820190508181036000830152614a368161452a565b9050919050565b60006020820190508181036000830152614a568161454d565b9050919050565b60006020820190508181036000830152614a7681614570565b9050919050565b60006020820190508181036000830152614a9681614593565b9050919050565b60006020820190508181036000830152614ab6816145d9565b9050919050565b60006020820190508181036000830152614ad6816145fc565b9050919050565b6000602082019050614af26000830184614665565b92915050565b6000614b02614b13565b9050614b0e8282614d8e565b919050565b6000604051905090565b600067ffffffffffffffff821115614b3857614b37614ec6565b5b614b4182614ef5565b9050602081019050919050565b600081519050919050565b600081519050919050565b600082825260208201905092915050565b600082825260208201905092915050565b600081905092915050565b6000614b9c82614d10565b9150614ba783614d10565b9250827fffffffffffffffffffffffffffffffffffffffffffffffffffffffffffffffff03821115614bdc57614bdb614e39565b5b828201905092915050565b6000614bf282614d10565b9150614bfd83614d10565b925082614c0d57614c0c614e68565b5b828204905092915050565b6000614c2382614d10565b9150614c2e83614d10565b9250817fffffffffffffffffffffffffffffffffffffffffffffffffffffffffffffffff0483118215151615614c6757614c66614e39565b5b828202905092915050565b6000614c7d82614d10565b9150614c8883614d10565b925082821015614c9b57614c9a614e39565b5b828203905092915050565b6000614cb182614cf0565b9050919050565b60008115159050919050565b60007fffffffff0000000000000000000000000000000000000000000000000000000082169050919050565b600073ffffffffffffffffffffffffffffffffffffffff82169050919050565b6000819050919050565b82818337600083830152505050565b60005b83811015614d47578082015181840152602081019050614d2c565b83811115614d56576000848401525b50505050565b60006002820490506001821680614d7457607f821691505b60208210811415614d8857614d87614e97565b5b50919050565b614d9782614ef5565b810181811067ffffffffffffffff82111715614db657614db5614ec6565b5b80604052505050565b6000614dca82614d10565b91507fffffffffffffffffffffffffffffffffffffffffffffffffffffffffffffffff821415614dfd57614dfc614e39565b5b600182019050919050565b6000614e1382614d10565b9150614e1e83614d10565b925082614e2e57614e2d614e68565b5b828206905092915050565b7f4e487b7100000000000000000000000000000000000000000000000000000000600052601160045260246000fd5b7f4e487b7100000000000000000000000000000000000000000000000000000000600052601260045260246000fd5b7f4e487b7100000000000000000000000000000000000000000000000000000000600052602260045260246000fd5b7f4e487b7100000000000000000000000000000000000000000000000000000000600052604160045260246000fd5b6000601f19601f8301169050919050565b7f455243373231456e756d657261626c653a206f776e657220696e646578206f7560008201527f74206f6620626f756e6473000000000000000000000000000000000000000000602082015250565b7f4552433732313a207472616e7366657220746f206e6f6e20455243373231526560008201527f63656976657220696d706c656d656e7465720000000000000000000000000000602082015250565b7f4f776e61626c653a206e6577206f776e657220697320746865207a65726f206160008201527f6464726573730000000000000000000000000000000000000000000000000000602082015250565b7f4552433732313a20746f6b656e20616c7265616479206d696e74656400000000600082015250565b7f2c00000000000000000000000000000000000000000000000000000000000000600082015250565b7f7267622800000000000000000000000000000000000000000000000000000000600082015250565b7f4552433732313a207472616e7366657220746f20746865207a65726f2061646460008201527f7265737300000000000000000000000000000000000000000000000000000000602082015250565b7f4552433732313a20617070726f766520746f2063616c6c657200000000000000600082015250565b7f4552433732313a206f70657261746f7220717565727920666f72206e6f6e657860008201527f697374656e7420746f6b656e0000000000000000000000000000000000000000602082015250565b7f2900000000000000000000000000000000000000000000000000000000000000600082015250565b7f4552433732313a20617070726f76652063616c6c6572206973206e6f74206f7760008201527f6e6572206e6f7220617070726f76656420666f7220616c6c0000000000000000602082015250565b7f4552433732313a2062616c616e636520717565727920666f7220746865207a6560008201527f726f206164647265737300000000000000000000000000000000000000000000602082015250565b7f4552433732313a206f776e657220717565727920666f72206e6f6e657869737460008201527f656e7420746f6b656e0000000000000000000000000000000000000000000000602082015250565b7f227d000000000000000000000000000000000000000000000000000000000000600082015250565b7f4552433732313a206d696e7420746f20746865207a65726f2061646472657373600082015250565b7f4552433732313a20617070726f76656420717565727920666f72206e6f6e657860008201527f697374656e7420746f6b656e0000000000000000000000000000000000000000602082015250565b7f4f776e61626c653a2063616c6c6572206973206e6f7420746865206f776e6572600082015250565b7f4552433732313a207472616e73666572206f6620746f6b656e2074686174206960008201527f73206e6f74206f776e0000000000000000000000000000000000000000000000602082015250565b7f4552433732313a20617070726f76616c20746f2063757272656e74206f776e6560008201527f7200000000000000000000000000000000000000000000000000000000000000602082015250565b7f646174613a6170706c69636174696f6e2f6a736f6e3b6261736536342c000000600082015250565b7f4552433732313a207472616e736665722063616c6c6572206973206e6f74206f60008201527f776e6572206e6f7220617070726f766564000000000000000000000000000000602082015250565b7f455243373231456e756d657261626c653a20676c6f62616c20696e646578206f60008201527f7574206f6620626f756e64730000000000000000000000000000000000000000602082015250565b7f222c20226465736372697074696f6e223a20224372616e657320617265206c6960008201527f74746c65206f6e2d636861696e20746f6b656e73206f66206c75636b20666f7260208201527f207370656369616c2077616c6c657473222c2022696d616765223a202264617460408201527f613a696d6167652f7376672b786d6c3b6261736536342c000000000000000000606082015250565b7f7b226e616d65223a20224372616e652023000000000000000000000000000000600082015250565b61554781614ca6565b811461555257600080fd5b50565b61555e81614cb8565b811461556957600080fd5b50565b61557581614cc4565b811461558057600080fd5b50565b61558c81614d10565b811461559757600080fd5b5056fe22206f66667365743d2231303025222f3e3c2f6c696e6561724772616469656e743e3c6c696e6561724772616469656e742078313d2233362e3325222079313d2234342e3325222078323d2235392e3025222079323d2232352e3925222069643d2245223e3c73746f702073746f702d636f6c6f723d2222206f66667365743d2231303025222f3e3c2f6c696e6561724772616469656e743e3c6c696e6561724772616469656e742078313d2234352e3325222079313d22353025222078323d2235372e3325222079323d2238392e3525222069643d2243223e3c73746f702073746f702d636f6c6f723d222220643d224d383020313936386838307638304838307a222f3e3c2f673e3c2f7376673e22206f66667365743d2231303025222f3e3c2f6c696e6561724772616469656e743e3c6c696e6561724772616469656e742078313d2236302e3725222079313d2231322e3125222078323d2234322e3125222079323d223130362e3325222069643d2247223e3c73746f702073746f702d636f6c6f723d2222206f66667365743d223025222f3e3c73746f702073746f702d636f6c6f723d222220643d224d3020306832303438763230343848307a222f3e3c706f6c79676f6e2066696c7465723d2275726c28235329222066696c6c3d227267626128302c302c302c2e33292220706f696e74733d223237312035363220373833203132343720313030352039393920313933302036343320313633372031323536203138373120313531302031363037203133353520313134392031373735203130343720313634312035352031343334203537362031313935223e3c2f706f6c79676f6e3e3c673e3c616e696d6174655472616e73666f726d206174747269627574654e616d653d227472616e73666f726d2220747970653d227472616e736c617465222076616c7565733d223832203138363b3832203134303b38322031383622206475723d2234732220726570656174436f756e743d22696e646566696e69746522202f3e3c706174682066696c6c3d2275726c282341292220643d224d383333203738356c3131352d323634203933362d3432352d333335203739362d333137203138397a222f3e3c706174682066696c6c3d2275726c282342292220643d224d353732203835314c32313920306c353736203933327a222f3e3c706174682066696c6c3d2275726c282343292220643d224d393934203730366c323338203333302d3134342038387a222f3e3c706174682066696c6c3d2275726c282344292220643d224d3131363520313339386c3430352d3436362e3238364c313532312e393439203837307a222f3e3c7061746820643d224d31353530203833346332302e3633332d31312e3832382036332e3831342e3730312038382033302031362e3132342031392e3533332037322e343537203130382e31393920313639203236366c2d3238352d32363963342e3931312d31302e3131352031342e3234352d31392e3131352032382d32377a222066696c6c3d2275726c28234529222f3e3c7061746820643d224d3130363320313130396c3430302d3236346331392d31332035322d32352038342d372032312e33333320313220313038203130392e33333320323630203239326c2d3237392d3231362d333633203438342d36382034312d33342d3333307a222066696c6c3d2275726c28234629222f3e3c706174682066696c6c3d2275726c282347292220643d224d3130393720313433396c34372d3230362d3135302033337a222f3e3c706174682066696c6c3d2275726c282348292220643d224d363531203835376c3334332d31353120313530203532377a222f3e3c706174682066696c6c3d2275726c282349292220643d224d3020313033356c3439382d3236372032313320363220343333203430332d3131332035327a222f3e3c2f673e3c706174682066696c6c3d224142434445464748494a4b4c4d4e4f505152535455565758595a6162636465666768696a6b6c6d6e6f707172737475767778797a303132333435363738392b2f2220643d224d30203139363868383076383048307a222f3e3c706174682066696c6c3d2222206f66667365743d2231303025222f3e3c2f6c696e6561724772616469656e743e3c6c696e6561724772616469656e742078313d222d31372e3925222079313d2237392e3625222078323d2235372e3425222079323d2231312e3325222069643d2246223e3c73746f702073746f702d636f6c6f723d2222206f66667365743d2231303025222f3e3c2f6c696e6561724772616469656e743e3c2f646566733e3c672066696c6c3d226e6f6e65222066696c6c2d72756c653d226576656e6f6464223e3c706174682066696c6c3d2222206f66667365743d2231303025222f3e3c2f6c696e6561724772616469656e743e3c6c696e6561724772616469656e742078313d2237312e3925222079313d2231392e3325222078323d2232392e3125222079323d2231303025222069643d2244223e3c73746f702073746f702d636f6c6f723d2222206f66667365743d2231303025222f3e3c2f6c696e6561724772616469656e743e3c6c696e6561724772616469656e742078313d22353025222079313d2239322e3025222078323d2236312e3225222079323d2237392e3925222069643d2242223e3c73746f702073746f702d636f6c6f723d2222206f66667365743d2231303025222f3e3c2f6c696e6561724772616469656e743e3c6c696e6561724772616469656e742078313d2234332e3725222079313d2235372e3625222078323d2237352e3125222079323d22382e3125222069643d2248223e3c73746f702073746f702d636f6c6f723d223c73766720786d6c6e733d22687474703a2f2f7777772e77332e6f72672f323030302f737667222076696577426f783d22302030203230343820323034382220786d6c6e733a763d2268747470733a2f2f76656374612e696f2f6e616e6f223e3c646566733e3c66696c7465722069643d22532220783d22302220793d2230223e3c6665476175737369616e426c757220696e3d22536f75726365477261706869632220737464446576696174696f6e3d223530222f3e3c2f66696c7465723e3c6c696e6561724772616469656e742078313d22313725222079313d22383125222078323d22383725222079323d2232312e3525222069643d2241223e3c73746f702073746f702d636f6c6f723d2222206f66667365743d2231303025222f3e3c2f6c696e6561724772616469656e743e3c6c696e6561724772616469656e742078313d2231303025222079313d2234322e3225222078323d22353025222079323d2235382e3425222069643d2249223e3c73746f702073746f702d636f6c6f723d22a26469706673582212200924e0959ad33e328e726dd0264d1df157bbf4c8385866983c1d4cf5a33bbd5264736f6c63430008020033",
  "linkReferences": {},
  "deployedLinkReferences": {}
}